{
  "contractName": "Faucet",
  "abi": [
    {
      "inputs": [
        {
          "internalType": "address",
          "name": "",
          "type": "address"
        }
      ],
      "name": "funders",
      "outputs": [
        {
          "internalType": "bool",
          "name": "",
          "type": "bool"
        }
      ],
      "stateMutability": "view",
      "type": "function",
      "constant": true
    },
    {
      "inputs": [
        {
          "internalType": "uint256",
          "name": "",
          "type": "uint256"
        }
      ],
      "name": "lutFunders",
      "outputs": [
        {
          "internalType": "address",
          "name": "",
          "type": "address"
        }
      ],
      "stateMutability": "view",
      "type": "function",
      "constant": true
    },
    {
      "inputs": [],
      "name": "numOfFunders",
      "outputs": [
        {
          "internalType": "uint256",
          "name": "",
          "type": "uint256"
        }
      ],
      "stateMutability": "view",
      "type": "function",
      "constant": true
    },
    {
      "inputs": [],
      "name": "owner",
      "outputs": [
        {
          "internalType": "address",
          "name": "",
          "type": "address"
        }
      ],
      "stateMutability": "view",
      "type": "function",
      "constant": true
    },
    {
      "inputs": [
        {
          "internalType": "address",
          "name": "newOwner",
          "type": "address"
        }
      ],
      "name": "transferOwnership",
      "outputs": [],
      "stateMutability": "nonpayable",
      "type": "function"
    },
    {
      "stateMutability": "payable",
      "type": "receive",
      "payable": true
    },
    {
      "inputs": [],
      "name": "emitLog",
      "outputs": [
        {
          "internalType": "bytes32",
          "name": "",
          "type": "bytes32"
        }
      ],
      "stateMutability": "pure",
      "type": "function",
      "constant": true
    },
    {
      "inputs": [],
      "name": "addFunds",
      "outputs": [],
      "stateMutability": "payable",
      "type": "function",
      "payable": true
    },
    {
      "inputs": [
        {
          "internalType": "uint256",
          "name": "withdrawAmount",
          "type": "uint256"
        }
      ],
      "name": "withdraw",
      "outputs": [],
      "stateMutability": "nonpayable",
      "type": "function"
    },
    {
      "inputs": [],
      "name": "manage1",
      "outputs": [],
      "stateMutability": "nonpayable",
      "type": "function"
    },
    {
      "inputs": [],
      "name": "manage2",
      "outputs": [],
      "stateMutability": "nonpayable",
      "type": "function"
    },
    {
      "inputs": [],
      "name": "getAllFunders",
      "outputs": [
        {
          "internalType": "address[]",
          "name": "",
          "type": "address[]"
        }
      ],
      "stateMutability": "view",
      "type": "function",
      "constant": true
    },
    {
      "inputs": [
        {
          "internalType": "uint8",
          "name": "index",
          "type": "uint8"
        }
      ],
      "name": "getFunderAtIndex",
      "outputs": [
        {
          "internalType": "address",
          "name": "",
          "type": "address"
        }
      ],
      "stateMutability": "view",
      "type": "function",
      "constant": true
    }
  ],
  "bytecode": "0x608060405234801561001057600080fd5b50336000806101000a81548173ffffffffffffffffffffffffffffffffffffffff021916908373ffffffffffffffffffffffffffffffffffffffff160217905550610d40806100606000396000f3fe6080604052600436106100ab5760003560e01c80638863f8dd116100645780638863f8dd146101d95780638da5cb5b146101f0578063a26759cb1461021b578063af7f2c9b14610225578063f2fde38b14610250578063f42c13bf14610279576100b2565b8063031b3677146100b75780630a93cf33146100f45780631f8947ea146101315780632e1a7d4d1461016e5780636fbbb55d1461019757806384f67880146101c2576100b2565b366100b257005b600080fd5b3480156100c357600080fd5b506100de60048036038101906100d991906108b6565b6102a4565b6040516100eb9190610a75565b60405180910390f35b34801561010057600080fd5b5061011b60048036038101906101169190610908565b6102c4565b6040516101289190610a38565b60405180910390f35b34801561013d57600080fd5b50610158600480360381019061015391906108df565b610304565b6040516101659190610a38565b60405180910390f35b34801561017a57600080fd5b50610195600480360381019061019091906108df565b610337565b005b3480156101a357600080fd5b506101ac6103ce565b6040516101b99190610a53565b60405180910390f35b3480156101ce57600080fd5b506101d7610514565b005b3480156101e557600080fd5b506101ee6105a4565b005b3480156101fc57600080fd5b50610205610634565b6040516102129190610a38565b60405180910390f35b610223610658565b005b34801561023157600080fd5b5061023a610778565b6040516102479190610aeb565b60405180910390f35b34801561025c57600080fd5b50610277600480360381019061027291906108b6565b61077e565b005b34801561028557600080fd5b5061028e61084f565b60405161029b9190610a90565b60405180910390f35b60026020528060005260406000206000915054906101000a900460ff1681565b6000600360008360ff16815260200190815260200160002060009054906101000a900473ffffffffffffffffffffffffffffffffffffffff169050919050565b60036020528060005260406000206000915054906101000a900473ffffffffffffffffffffffffffffffffffffffff1681565b8067016345785d8a0000811115610383576040517f08c379a000000000000000000000000000000000000000000000000000000000815260040161037a90610acb565b60405180910390fd5b3373ffffffffffffffffffffffffffffffffffffffff166108fc839081150290604051600060405180830381858888f193505050501580156103c9573d6000803e3d6000fd5b505050565b6060600060015467ffffffffffffffff811115610414577f4e487b7100000000000000000000000000000000000000000000000000000000600052604160045260246000fd5b6040519080825280602002602001820160405280156104425781602001602082028036833780820191505090505b50905060005b60015481101561050c576003600082815260200190815260200160002060009054906101000a900473ffffffffffffffffffffffffffffffffffffffff168282815181106104bf577f4e487b7100000000000000000000000000000000000000000000000000000000600052603260045260246000fd5b602002602001019073ffffffffffffffffffffffffffffffffffffffff16908173ffffffffffffffffffffffffffffffffffffffff1681525050808061050490610baf565b915050610448565b508091505090565b3373ffffffffffffffffffffffffffffffffffffffff1660008054906101000a900473ffffffffffffffffffffffffffffffffffffffff1673ffffffffffffffffffffffffffffffffffffffff16146105a2576040517f08c379a000000000000000000000000000000000000000000000000000000000815260040161059990610aab565b60405180910390fd5b565b3373ffffffffffffffffffffffffffffffffffffffff1660008054906101000a900473ffffffffffffffffffffffffffffffffffffffff1673ffffffffffffffffffffffffffffffffffffffff1614610632576040517f08c379a000000000000000000000000000000000000000000000000000000000815260040161062990610aab565b60405180910390fd5b565b60008054906101000a900473ffffffffffffffffffffffffffffffffffffffff1681565b6000339050600260008273ffffffffffffffffffffffffffffffffffffffff1673ffffffffffffffffffffffffffffffffffffffff16815260200190815260200160002060009054906101000a900460ff16610775576000600160008154809291906106c390610baf565b9190505590506001600260008473ffffffffffffffffffffffffffffffffffffffff1673ffffffffffffffffffffffffffffffffffffffff16815260200190815260200160002060006101000a81548160ff021916908315150217905550816003600083815260200190815260200160002060006101000a81548173ffffffffffffffffffffffffffffffffffffffff021916908373ffffffffffffffffffffffffffffffffffffffff160217905550505b50565b60015481565b3373ffffffffffffffffffffffffffffffffffffffff1660008054906101000a900473ffffffffffffffffffffffffffffffffffffffff1673ffffffffffffffffffffffffffffffffffffffff161461080c576040517f08c379a000000000000000000000000000000000000000000000000000000000815260040161080390610aab565b60405180910390fd5b806000806101000a81548173ffffffffffffffffffffffffffffffffffffffff021916908373ffffffffffffffffffffffffffffffffffffffff16021790555050565b60007f48656c6c6f20576f726c64000000000000000000000000000000000000000000905090565b60008135905061088681610cc5565b92915050565b60008135905061089b81610cdc565b92915050565b6000813590506108b081610cf3565b92915050565b6000602082840312156108c857600080fd5b60006108d684828501610877565b91505092915050565b6000602082840312156108f157600080fd5b60006108ff8482850161088c565b91505092915050565b60006020828403121561091a57600080fd5b6000610928848285016108a1565b91505092915050565b600061093d8383610949565b60208301905092915050565b61095281610b50565b82525050565b61096181610b50565b82525050565b600061097282610b16565b61097c8185610b2e565b935061098783610b06565b8060005b838110156109b857815161099f8882610931565b97506109aa83610b21565b92505060018101905061098b565b5085935050505092915050565b6109ce81610b62565b82525050565b6109dd81610b6e565b82525050565b60006109f0602183610b3f565b91506109fb82610c27565b604082019050919050565b6000610a13602483610b3f565b9150610a1e82610c76565b604082019050919050565b610a3281610b98565b82525050565b6000602082019050610a4d6000830184610958565b92915050565b60006020820190508181036000830152610a6d8184610967565b905092915050565b6000602082019050610a8a60008301846109c5565b92915050565b6000602082019050610aa560008301846109d4565b92915050565b60006020820190508181036000830152610ac4816109e3565b9050919050565b60006020820190508181036000830152610ae481610a06565b9050919050565b6000602082019050610b006000830184610a29565b92915050565b6000819050602082019050919050565b600081519050919050565b6000602082019050919050565b600082825260208201905092915050565b600082825260208201905092915050565b6000610b5b82610b78565b9050919050565b60008115159050919050565b6000819050919050565b600073ffffffffffffffffffffffffffffffffffffffff82169050919050565b6000819050919050565b600060ff82169050919050565b6000610bba82610b98565b91507fffffffffffffffffffffffffffffffffffffffffffffffffffffffffffffffff821415610bed57610bec610bf8565b5b600182019050919050565b7f4e487b7100000000000000000000000000000000000000000000000000000000600052601160045260246000fd5b7f4f6e6c79206f776e65722063616e2063616c6c20746869732066756e6374696f60008201527f6e00000000000000000000000000000000000000000000000000000000000000602082015250565b7f43616e206e6f74207769746864726177206d6f7265207468616e20302e31206560008201527f7468657200000000000000000000000000000000000000000000000000000000602082015250565b610cce81610b50565b8114610cd957600080fd5b50565b610ce581610b98565b8114610cf057600080fd5b50565b610cfc81610ba2565b8114610d0757600080fd5b5056fea26469706673582212209e7af80bd6a94f41c50a8c54822a77a2779266db985362c843eb8a13f03f2f6664736f6c63430008040033",
  "immutableReferences": {},
  "source": "pragma solidity >=0.4.22 <0.9.0;\n\nimport \"./OwnedContract.sol\";\nimport \"./LoggerContract.sol\";\nimport \"./IFaucet.sol\";\n\ncontract Faucet is Owned, Logger, IFaucet {\n\n    uint public numOfFunders;\n    mapping(address => bool) public funders;\n    mapping(uint => address) public lutFunders;\n\n    modifier limitWithdraw(uint withdrawAmount) {\n        require(withdrawAmount <= 100000000000000000, \"Can not withdraw more than 0.1 ether\");\n        _;\n    }\n\n    receive() external payable {}\n\n    function emitLog() public override pure returns(bytes32) {\n        return \"Hello World\";\n    }\n\n    function addFunds() override external payable {\n        address funder = msg.sender;\n        if(!funders[funder]) {\n            uint index = numOfFunders++;\n            funders[funder] = true;\n            lutFunders[index] = funder;\n        }\n    }\n\n    function withdraw(uint withdrawAmount) override external limitWithdraw(withdrawAmount) {\n        payable(msg.sender).transfer(withdrawAmount);\n    }\n\n    function manage1() external onlyOwner {\n        //some managing stuff that only adim shoud have access to\n    }\n\n    function manage2() external onlyOwner {\n        //some managing stuff that only adim shoud have access to\n    }\n\n    function getAllFunders() external view returns (address[] memory) {\n        address[] memory _funders = new address[](numOfFunders);\n        for(uint i = 0; i < numOfFunders; i++) {\n            _funders[i] = lutFunders[i];\n        }\n        return _funders;\n    }\n\n    function getFunderAtIndex(uint8 index) external view returns (address) {\n        return lutFunders[index];\n    }\n}\n\n\n// const instance = await Faucet.deployed();\n\n// instance.addFunds({from: accounts[0], value: \"2000000000000000000\"})\n// instance.addFunds({from: accounts[1], value: \"2000000000000000000\"})\n\n// instance.withdraw(\"500000000000000000\", {from: accounts[1]})\n\n// instance.getFunderAtIndex(0)\n// instance.getAllFunders()\n// instance.manage1({from: accounts[0]})",
  "sourcePath": "/Users/tadejak/Desktop/EthereumCoureses/SoliditySmartContracts/SolidityAndEthereumInReactCourse/faucet/contracts/FaucetContract.sol",
  "compiler": {
    "name": "solc",
    "version": "0.8.4+commit.c7e474f2.Emscripten.clang"
  },
  "schemaVersion": "3.4.7",
  "updatedAt": "2022-10-27T20:28:14.583Z",
  "networkType": "ethereum",
  "devdoc": {
    "kind": "dev",
    "methods": {},
    "version": 1
  },
  "userdoc": {
    "kind": "user",
    "methods": {},
    "version": 1
  }
}